{
  "_format": "hh-sol-artifact-1",
  "contractName": "VendingMachineV1",
  "sourceName": "contracts/VendingMachine.sol",
  "abi": [
    {
      "anonymous": false,
      "inputs": [
        {
          "indexed": false,
          "internalType": "uint8",
          "name": "version",
          "type": "uint8"
        }
      ],
      "name": "Initialized",
      "type": "event"
    },
    {
      "inputs": [
        {
          "internalType": "uint256",
          "name": "_numSodas",
          "type": "uint256"
        }
      ],
      "name": "initialize",
      "outputs": [],
      "stateMutability": "nonpayable",
      "type": "function"
    },
    {
      "inputs": [],
      "name": "numSodas",
      "outputs": [
        {
          "internalType": "uint256",
          "name": "",
          "type": "uint256"
        }
      ],
      "stateMutability": "view",
      "type": "function"
    },
    {
      "inputs": [],
      "name": "purchaseSoda",
      "outputs": [],
      "stateMutability": "payable",
      "type": "function"
    }
  ],
  "bytecode": "0x608060405234801561001057600080fd5b5061051f806100206000396000f3fe6080604052600436106100345760003560e01c806363b18329146100395780637454ab6d14610064578063fe4b84df1461006e575b600080fd5b34801561004557600080fd5b5061004e610097565b60405161005b9190610276565b60405180910390f35b61006c61009d565b005b34801561007a57600080fd5b50610095600480360381019061009091906102c2565b6100fc565b005b60015481565b6103e83410156100e2576040517f08c379a00000000000000000000000000000000000000000000000000000000081526004016100d990610372565b60405180910390fd5b600160008154809291906100f5906103c1565b9190505550565b60008060019054906101000a900460ff1615905080801561012d5750600160008054906101000a900460ff1660ff16105b8061015a575061013c3061023a565b1580156101595750600160008054906101000a900460ff1660ff16145b5b610199576040517f08c379a00000000000000000000000000000000000000000000000000000000081526004016101909061045c565b60405180910390fd5b60016000806101000a81548160ff021916908360ff16021790555080156101d6576001600060016101000a81548160ff0219169083151502179055505b8160018190555080156102365760008060016101000a81548160ff0219169083151502179055507f7f26b83ff96e1f2b6a682f133852f6798a09c465da95921460cefb3847402498600160405161022d91906104ce565b60405180910390a15b5050565b6000808273ffffffffffffffffffffffffffffffffffffffff163b119050919050565b6000819050919050565b6102708161025d565b82525050565b600060208201905061028b6000830184610267565b92915050565b600080fd5b61029f8161025d565b81146102aa57600080fd5b50565b6000813590506102bc81610296565b92915050565b6000602082840312156102d8576102d7610291565b5b60006102e6848285016102ad565b91505092915050565b600082825260208201905092915050565b7f596f75206d7573742070617920313030302077656920666f72206120736f646160008201527f2100000000000000000000000000000000000000000000000000000000000000602082015250565b600061035c6021836102ef565b915061036782610300565b604082019050919050565b6000602082019050818103600083015261038b8161034f565b9050919050565b7f4e487b7100000000000000000000000000000000000000000000000000000000600052601160045260246000fd5b60006103cc8261025d565b9150600082036103df576103de610392565b5b600182039050919050565b7f496e697469616c697a61626c653a20636f6e747261637420697320616c72656160008201527f647920696e697469616c697a6564000000000000000000000000000000000000602082015250565b6000610446602e836102ef565b9150610451826103ea565b604082019050919050565b6000602082019050818103600083015261047581610439565b9050919050565b6000819050919050565b600060ff82169050919050565b6000819050919050565b60006104b86104b36104ae8461047c565b610493565b610486565b9050919050565b6104c88161049d565b82525050565b60006020820190506104e360008301846104bf565b9291505056fea264697066735822122035329ec4a9c02e1b64eb484ef11e37491db00b5889d6a57c3e47b1a2d3fb679964736f6c63430008110033",
  "linkReferences": {},
  "deployedLinkReferences": {}
}